130592000005BATTLE CREEK PUBLIC SCHOOLS                       
130672000005BATTLE CREEK PUBLIC SCHOOLS                       
132595000005BATTLE CREEK PUBLIC SCHOOLS                       
136344000005BATTLE CREEK PUBLIC SCHOOLS                       
137570000005BATTLE CREEK PUBLIC SCHOOLS                       
270796000006BESSEMER AREA SCHOOL DISTRICT                     
270798000006BESSEMER AREA SCHOOL DISTRICT                     
320906000007HARBOR BEACH COMMUNITY SCHOOLS                    
323646000007HARBOR BEACH COMMUNITY SCHOOLS                    
326236000007HARBOR BEACH COMMUNITY SCHOOLS                    
327014000007HARBOR BEACH COMMUNITY SCHOOLS                    
327126000007HARBOR BEACH COMMUNITY SCHOOLS                    
327316000007HARBOR BEACH COMMUNITY SCHOOLS                    
327388000007HARBOR BEACH COMMUNITY SCHOOLS                    
762138000007HARBOR BEACH COMMUNITY SCHOOLS                    
320906000010SIGEL TOWNSHIP SCHOOL DISTRICT 3                  
324764000010SIGEL TOWNSHIP SCHOOL DISTRICT 3                  
327388000010SIGEL TOWNSHIP SCHOOL DISTRICT 3                  
328214000010SIGEL TOWNSHIP SCHOOL DISTRICT 3                  
320906000011SIGEL TOWNSHIP SCHOOL DISTRICT 4                  
327126000011SIGEL TOWNSHIP SCHOOL DISTRICT 4                  
327388000011SIGEL TOWNSHIP SCHOOL DISTRICT 4                  
491036000012ST. IGNACE AREA SCHOOLS                           
497084000012ST. IGNACE AREA SCHOOLS                           
497086000012ST. IGNACE AREA SCHOOLS                           
